:0300000002066392
:0C066300787FE4F6D8FD7581580206AAE5
:0B0C6E00EF1FAC0670011E4C70F62258
:02097500AD07CC
:100977007B08E4FAC2A47F08FE120C6E0A0A0A0A70
:100987000A0AAF031BEF6015ED1392A47F087E00E0
:10099700120C6E0A0A0A0AEDC313FD80E5D2A47F82
:0609A700327E00020C6E1E
:0A09AD008B0C8A0D890E8C0F8D1043
:1009B700E4F511F512C3E5129510E511950F501DD9
:1009C700AB0CAA0DA90E85128285118312053DFF76
:0D09D7001209750512E51270DC051180D8BB
:0109E40022F0
:100B4C00E4FBFAEB6F7002EA6E6017900000E5822E
:100B5C006D7003E5836C6003A380F30BBB00010A8B
:020B6C0080E126
:010B6E002264
:090C7900EF25E025E0FFDFFE227B
:040B0000AD07AC068B
:100B0400E4FBFAC3EB9DEA9C50189000007F0112AD
:100B14000C79A3E5826403458370F20BBB00010AE0
:020B240080E16E
:010B260022AC
:010C9200223F
:080289008D158B168A178918E8
:10029100759054EF25E054FEF58075907375905478
:1002A100758090759074759054120C922081FD7533
:1002B1009054851580759073759054758010759064
:1002C10074759054120C922081FDE4F51BF51CE528
:1002D1001A24FFFFE51934FFFEC3E51C9FE51B9EB1
:1002E1005033759054AB16AA17A918851C82851B2B
:1002F1008312053DF5807590737590547580107566
:100301009074759054120C922081FD051CE51C70AF
:10031100BE051B80BA759054AB16AA17A918E51A29
:1003210024FFFFE51934FF8F82F58312053DF58027
:1003310075907375905475805075907475905412C2
:050341000C922081FD7B
:010346002294
:0A0003008F188D198B1A8A1B891CB7
:10000D00759054E51825E054FEF580759073759044
:10001D0054758090759074759054120C922081FDDA
:10002D007590548519807590737590547580107501
:10003D009074759054120C922081FD759054E518B2
:10004D0025E04401F5807590737590547580907519
:10005D009074759054120C922081FDE4F51FF520DB
:10006D00E51E24FFFFE51D34FFFEC3E5209FE51FC0
:10007D009E50337590547580207590747590541200
:10008D000C922081FD759053120C92AB1AAA1BA9EC
:10009D001C852082851F83E58012056A0520E520D9
:1000AD0070BE051F80BA7590547580687590747513
:1000BD009054120C922081FD759053120C92AB1A34
:1000CD00AA1BA91CE51E24FFFFE51D34FF8F82F539
:0600DD0083E58002056AC4
:040C880075905022F1
:100BAB00759054758002759070759054E4F580754E
:0C0BBB00907175905475808075907222C6
:060400008B358A368937B6
:10040600759054EF54FEF580759073759054758011
:1004160090759074759054120C922081FDE4F53A13
:10042600F53BE53924FFFFE53834FFFEC3E53B9F86
:10043600E53A9E5033759054AB35AA36A937853BBD
:1004460082853A8312053DF58075907375905475D3
:100456008010759074759054120C922081FD053BA6
:10046600E53B70BE053A80BA759054AB35AA36A9FD
:1004760037E53924FFFFE53834FF8F82F58312050F
:100486003DF58075907375905475805075907475B0
:080496009054120C922081FD2C
:01049E00223B
:06049F008B3D8A3E893FFF
:1004A500759054EF4401F58075907375905475807F
:1004B50090759074759054120C922081FDE4F5426C
:1004C500F543E54124FFFFE54034FFFEC3E5439FC7
:1004D500E5429E50337590547580207590747590E3
:1004E50054120C922081FD759053120C92AB3DAACB
:1004F5003EA93F854382854283E58012056A05430F
:10050500E54370BE054280BA759054758068759054
:1005150074759054120C922081FD759053120C92B3
:10052500AB3DAA3EA93FE54124FFFFE54034FF8FDF
:0805350082F583E58002056AEE
:0D0A8500C2B27D037FA0120A927D06E4FF3D
:100A9200E4FEEEC39D5015C2B1EF30E704D2B08040
:0C0AA20002C2B0D2B1EF25E0FF0E80E6EA
:010AAE002225
:100C3500AC07C2B27D047F80120A92AF047D081210
:090C45000A92D2B27F01020C797F
:100B2700AC05AB07C2B27D037FA0120A92EB25E0AA
:100B370025E0FF7D06120A92ECC454F0FF7D0412F3
:050B47000A92D2B22267
:100B6F007F52120C357F30120C35E4FF120C357F9B
:0E0B7F000A120C357F02120C357F06020C356F
:100C4E00120A85E4FC7D08E4FF120A920CBC04F53E
:020C5E00D2B210
:010C60002271
:0400E3008E0F8F10DD
:1000E700120A85E4FCE50F54F0C4540FFFE46003E3
:1000F70002019AEFB41000400302019A90010AF836
:1001070028287302013A02014002014602014C020B
:10011700015202015802015E02016402016A0201F2
:100127007002017602017C02018202018802018EBF
:100137000201947D087FBE805E7D087F0680587D22
:10014700087F7C80527D087F5E804C7D087FC6805B
:10015700467D087FDA80407D087FFA803A7D087FF8
:100167000E80347D087FFE802E7D087FDE80287D0F
:10017700087FEE80227D087FF2801C7D087FB88093
:10018700167D087F7680107D087FF8800A7D087FBE
:10019700E880047D087F5E120A92E510C4F8540FC8
:1001A700C868F510E50FC454F048F50F0CEC64046B
:0701B70060030200ECD2B26C
:0101BE00221E
:030C8C00D2B222BF
:030C8F00C2B222CC
:10093C007590387D647C007F0A7E00120B4C75909C
:10094C00357D647C007F017E00120B4CE4F58075D4
:10095C0090347D64FC7F01FE120B4C7580907D649D
:09096C007C007F017E00020B4CAF
:100AAF00C2A3D2A27D647C007F017E00120B4CC2D8
:100ABF00A07D647C007F017E00120B4CD2A07D6470
:090ACF007C007F017E00020B4C4B
:100AD8007590308F80E4F59075801075903475802E
:100AE800347590142082FA7590107D017C007F0186
:070AF8007E00120B4CAF80E1
:010AFF0022D4
:060C8200120C88020BAB0E
:10086E00120C82750C60E4F50DFB7A00790CF5190B
:10087E00751A017D807F48120289750CC9E4F50D49
:10088E00FB7A00790CF519751A027D027F48120267
:10089E0089750C7DE4F50DFB7A00790CF519751A46
:0808AE00027D037F480202896C
:0405D6008E0C8F0DEB
:1005DA00120C82D3E50D9403E50C94005007C3E591
:1005EA000C9400500E7FA07EEA1200E37FE87E039F
:1005FA00020B007B007A00790E751D00751E017DC5
:10060A00807F48120003E50D450C7005530E9F804C
:10061A0034E50D6401450C700AE50E549F4420F53B
:10062A000E8022E50D6402450C700AE50E549F44C3
:10063A0040F50E8010E50D6403450C7008E50E5474
:10064A009F4460F50E7B007A00790E751900751AC1
:08065A00017D807F4812028936
:010662002275
:04081F008E0C8F0D9F
:10082300120C82E50D450C6005750EC98003750E2B
:10083300E7E4F50F7B007A00790E751900751A024B
:100843007D027F48120289E50D450C6005750E7D1A
:100853008003750E55E4F50F7B007A00790E751948
:0B08630000751A027D037F4802028925
:0408FC008E0C8F0DC2
:10090000120C827B007A00790E751D00751E017D28
:10091000807F48120003E50D450C600AE50E54FE89
:100920004401F50E8003530EFE7B007A00790E75AC
:0C0930001900751A017D807F48020289C1
:0606EF008B448A45894698
:1006F5007B007A007947751D00751E02E4FD7F4871
:10070500120003AB44AA45A946E48547F01205B794
:10071500AB49AA4AA94BE48548F01205B7AB44AAF0
:1007250045A94612058CC4F8540FC868FDE5F0C408
:1007350054F048FCAB49AA4AA94B12058CAEF07897
:1007450004CEA2E713CE13D8F8FFEE4CFEEF4DFF13
:0C075500AB44AA45A946EE8FF00205B7A0
:060347008B4C8A4D894E2B
:10034D00120C827B007A00794F751D00751E017DA0
:10035D00807F48120003E54F5480F47007E54F5439
:10036D0001F46003434F817B007A00794F751900CA
:10037D00751A017D807F481202897D647C007F01A2
:10038D007E00120B4C7B007A007950751D00751E96
:10039D0002E4FD7F48120003AB4CAA4DA94EE48543
:1003AD0050F01205B7755200855153AB4CAA4DA9AB
:1003BD004E12058CC4F8540FC868FDE5F0C454F016
:1003CD0048FCE553AE527804CEA2E713CE13D8F80D
:1003DD00FFEE4CFEEF4DFFEE8FF01205B7534F7F42
:1003ED007B007A007950751900751A017D807F4860
:0303FD0002028970
:0A0BC7007B007512007513017F1802
:100BD100AD0785121985131A7F601202897F0A02F7
:020BE1000C798D
:0A0BE3007B007516007517027F08ED
:100BED00AD0785161D85171E7F601200037F0A0253
:020BFD000C7971
:0209E5008D0E75
:1009E700EF44A0F50F7B007A00790E751900751A90
:1009F700017D177F601202897F0A120C797B007ACA
:100A070000790F751900751A017D187F6012028928
:050A17007F0A020C79CA
:020A1C008D0E3D
:100A1E00EF4480F50F7B007A00790F751900751A77
:100A2E00017D187F601202897F0A120C797B007A91
:100A3E0000790E751D00751E017D2E7F601200035C
:050A4E007F0A020C7993
:100A5300120C88120BAB7F647E00120B00750C170F
:100A63007B007A00790C7512007513017F07120B56
:100A7300D17B007A00790C7516007517017F070288
:020A83000BED79
:100BFF00750C017A00790C120BC77B007A00790C07
:0B0C0F007516007517017F18020BED31
:10076100E4F50CF50DFB7A00790CF5127513027F97
:1007710008120BD17A00790C120BE3750C017B0086
:100781007A00790C7512007513017F03120BD17B6E
:10079100007A00790C7516007517017F03120BEDB5
:1007A100750C017B007A00790C7512007513017FBD
:1007B10004120BD17B007A00790C751600751701B4
:0507C1007F04020BEDB6
:1008B6007D107F011209E57D0C7F01120A1C7D1057
:1008C6007F061209E57D0C7F06120A1C7D407F100B
:1008D6001209E57D0C7F10120A1CE4FD7F11120936
:1008E600E57D0C7F11120A1CE4FD7F121209E57DDD
:0608F6000C7F12020A1C37
:100C1A00750C067A00790C120BC77B007A00790CE6
:0B0C2A007516007517017F18020BED16
:0607C6008B0C8A0D890E68
:1007CC007DE87C037F017E00120B4C7B007A007964
:1007DC000F7516007517027F22120BEDE510FFE561
:1007EC000FAB0CAA0DA90ECF8FF01205B77B007AB8
:1007FC00007911751D00751E017D217F60120003AB
:10080C007B007A007911751900751A017D217F60C2
:03081C000202894C
:060B8D008B548A558956C5
:100B93007A007957120BE3E557FFE558AB54AA5592
:080BA300A956CF8FF00205B73F
:0C0C610002320000022500000223000007
:1001BF0074AAF508F509120B6F120C4E74FFFFFEAF
:1001CF001200E37DE87C037F017E00120B4CE524D7
:1001DF004523601712086E7F037E001205D67F013C
:1001EF007E0012081FE4FFFE1208FC120BFF120A1A
:1001FF00531207611208B67477FFFE1200E37DE811
:10020F007C037F037E00120B4C752701E4F50B7501
:10021F000A01120C1A7B007A0079081207C605240E
:10022F00E5247002052364014523701FAF09AE0852
:10023F001200E37B007A0079277D017C001209AD63
:10024F007DE87C037F037E00120B4CE5246402459E
:10025F002370BFAF270527FE1200E37B007A0079DA
:10026F00277D017C001209AD7DE87C037F027E00B3
:0A027F00120B4CE4F523F5248098DF
:10066F000201BFE493A3F8E493A34003F68001F2E1
:10067F0008DFF48029E493A3F85407240CC8C3338C
:10068F00C4540F4420C8834004F456800146F6DF5B
:10069F00E4800B0102040810204080900C61E47E7E
:1006AF00019360BCA3FF543F30E509541FFEE49350
:1006BF00A360010ECF54C025E060A840B8E493A317
:1006CF00FAE493A3F8E493A3C8C582C8CAC583CA42
:1006DF00F0A3C8C582C8CAC583CADFE9DEE780BEFA
:010C6D000086
:10053D00BB010CE58229F582E5833AF583E0225073
:10054D0006E92582F8E622BBFE06E92582F8E222BD
:0D055D00E58229F582E5833AF583E49322D7
:10056A00F8BB010DE58229F582E5833AF583E8F0C7
:10057A00225006E92582C8F622BBFE05E92582C873
:02058A00F2225B
:10058C00BB010A89828A83E0F5F0A3E0225006873A
:10059C00F009E71922BBFE07E3F5F009E3192289FC
:0B05AC00828A83E493F5F0740193222F
:1005B700BB010A89828A83F0E5F0A3F0225006F78F
:0F05C70009A7F01922BBFE06F3E5F009F319228C
:00000001FF
