:03000000020A5C95
:0C0A5C00787FE4F6D8FD75810702072FB3
:0E08B600900004EEF0A3EFF0A3ECF0A3EDF041
:1008C400E4FFFE900004E06E7003A3E06F601DE49B
:1008D400FDFC900006E06C7003A3E06D60070DBDA5
:0C08E40000010C80ED0FBF00010E80D75A
:0108F00022E5
:090A7300EF25E025E0FFDFFE2283
:0409CE00AD07AC06BF
:1009D200E4FBFAC3EB9DEA9C50189000007F0112E1
:1009E2000A73A3E5826403458370F20BBB00010A1C
:0209F20080E1A2
:0109F40022E0
:010A8600224D
:0E01FD00900009EDF0A3EBF0A3EAF0A3E9F007
:10020B00759054EF25E054FEF580759073759054FE
:10021B00758090759074759054120A862081FD75C7
:10022B009054900009E0F58075907375905475802B
:10023B0010759074759054120A862081FDE490001D
:10024B000FF0A3F090000EE024FFFF90000DE034C0
:10025B00FFFE90000FE0FCA3E0FDC39FEC9E503C23
:10026B0075905490000AE0FBA3E0FAA3E0F98D82AD
:10027B008C8312054CF580759073759054758010B6
:10028B00759074759054120A862081FD900010E0D1
:10029B0004F070B090000FE004F080A875905490BB
:1002AB00000AE0FBA3E0FAA3E0F990000EE024FFC4
:1002BB00FF90000DE034FF8F82F58312054CF58023
:1002CB007590737590547580507590747590541229
:0502DB000A862081FDF0
:0102E00022FB
:10000300900007EFF0A3EDF0A3EBF0A3EAF0A3E970
:01001300F0FC
:10001400759054900007E0FF25E054FEF58075903C
:1000240073759054758090759074759054120A8607
:100034002081FD759054900008E0F58075907375EB
:100044009054758010759074759054120A862081AE
:10005400FD759054900007E0FF25E04401F580759C
:100064009073759054758090759074759054120ABD
:10007400862081FDE490000EF0A3F090000DE024B2
:10008400FFFF90000CE034FFFEC390000FE09F9050
:10009400000EE09E504375905475802075907475E1
:1000A4009054120A862081FD759053120A8690009E
:1000B40009E0FBA3E0FAA3E0F990000EE0FEA3E060
:1000C400F5828E83E58012057990000FE004F070CC
:1000D400AA90000EE004F080A275905475806875B3
:1000E4009074759054120A862081FD759053120AFB
:1000F40086900009E0FBA3E0FAA3E0F990000DE08C
:1001040024FFFF90000CE034FF8F82F583E580022A
:0201140005796B
:040A7C0075905022FF
:100A1300759054758002759070759054E4F58075E7
:0C0A23009071759054758080759072225F
:0B048B00900012EBF0A3EAF0A3E9F0F0
:10049600759054EF54FEF580759073759054758081
:1004A60090759074759054120A862081FDE4900030
:1004B60017F0A3F0900016E024FFFF900015E0343B
:1004C600FFFE900017E0FCA3E0FDC39FEC9E503CAE
:1004D600759054900012E0FBA3E0FAA3E0F98D8238
:1004E6008C8312054CF58075907375905475801049
:1004F600759074759054120A862081FD900018E05C
:1005060004F070B0900017E004F080A87590549045
:100516000012E0FBA3E0FAA3E0F9900016E024FF46
:10052600FF900015E034FF8F82F58312054CF580AD
:1005360075907375905475805075907475905412BB
:050546000A862081FD82
:01054B00228D
:0B03C50090001AEBF0A3EAF0A3E9F0AF
:1003D000759054EF4401F580759073759054758055
:1003E00090759074759054120A862081FDE49000F7
:1003F0001FF0A3F090001EE024FFFF90001DE034EA
:10040000FFFEC3900020E09F90001FE09E504375C8
:100410009054758020759074759054120A862081CE
:10042000FD759053120A8690001AE0FBA3E0FAA330
:10043000E0F990001FE0FEA3E0F5828E83E58012D4
:100440000579900020E004F070AA90001FE004F00D
:1004500080A2759054758068759074759054120AD6
:10046000862081FD759053120A8690001AE0FBA346
:10047000E0FAA3E0F990001EE024FFFF90001DE0E9
:0B04800034FF8F82F583E580020579D0
:0D092A00C2B27D037FA01209377D06E4FFF5
:10093700E4FEEEC39D5015C2B1EF30E704D2B0809C
:0C09470002C2B0D2B1EF25E0FF0E80E646
:010953002281
:100A2F00AC07C2B27D047F80120937AF047D081274
:090A3F000937D2B27F01020A73EB
:10095400AC05AB07C2B27D037FA0120937AF03EF2A
:1009640025E025E0FF7D06120937AF04EFC454F0FB
:09097400FF7D04120937D2B22202
:1009F5007F52120A2F7F30120A2FE4FF120A2F7F2F
:0E0A05000A120A2F7F02120A2F7F06020A2F02
:100A480012092AE4FC7D08E4FF1209370CECB4040F
:030A5800F4D2B223
:010A5B002278
:0802E100900007EEF0A3EFF01E
:1002E90012092AE4FC900007E054F0C4540FFFE41B
:1002F900600302039EEFB41000400302039E9003C3
:100309000EF828287302033E02034402034A02033B
:100319005002035602035C02036202036802036E81
:1003290002037402037A02038002038602038C0229
:1003390003920203987D087FBE805E7D087F068058
:10034900587D087F7C80527D087F5E804C7D087FC8
:10035900C680467D087FDA80407D087FFA803A7D35
:10036900087F0E80347D087FFE802E7D087FDE8029
:10037900287D087FEE80227D087FF2801C7D087F22
:10038900B880167D087F7680107D087FF8800A7D09
:10039900087FE880047D087F5E120937900008E035
:1003A900C4F8540FC868F0900007E0C454F048F04E
:0B03B9000CEC640460030202EED2B200
:0103C4002216
:030A8000D2B222CD
:030A8300C2B222DA
:10072F00E4900000F0A3F0A3F0A3F01209F5120A71
:10073F004874FFFFFE1202E17DE87C037F017E001B
:10074F001208B61208127F037E001205FB7F017E8E
:10075F00001207B3E4FFFE12086D7477FFFE12025A
:10076F00E17DE87C037F037E001208B6900000E471
:10077F0075F00112059BAFF0FE1202E17DE87C03DC
:10078F007F037E001208B6900002E475F001120597
:10079F009BAFF0FE1202E17DE87C037F037E001227
:0407AF0008B680C840
:1008F1007590387D647C007F0A7E001208B6759081
:10090100357D647C007F017E001208B6E4F58075B8
:1009110090347D64FC7F01FE1208B67580907D6481
:090921007C007F017E000208B693
:10097D00C2A3D2A27D647C007F017E001208B6C2A4
:10098D00A07D647C007F017E001208B6D2A07D643C
:09099D007C007F017E000208B617
:1009A6007590308F80E4F590758010759034758061
:1009B600347590142082FA7590107D017C007F01B9
:0709C6007E001208B6AF80AD
:0109CD002207
:050A6800EEF0A3EFF029
:060A6D00120A7C020A13CC
:10081200120A6D9000047460F0E4A3F07B017A0088
:10082200790490000DF0A304F07D807F481201FD51
:1008320090000474C9F0E4A3F07B017A007904907B
:10084200000DF0A37402F0FD7F481201FD90000438
:10085200747DF0E4A3F07B017A00790490000DF03E
:0B086200A37402F07D037F480201FD3B
:0305FB0090000469
:1005FE00120A68900004E0FEA3E0D39403EE940088
:10060E005006C3EE9400500E7FA07EEA1202E17FE8
:10061E00E87E030209CE7B017A00790690000CE495
:10062E00F0A304F07D807F48120003900004E0FCEC
:10063E00A3E0FD4C7007A3E0549FF08036ED6401FB
:10064E004C700B900006E0549F4420F080259000E3
:10065E0004E0FCA3E0FD64024C7009A3E0549F4447
:10066E0040F0800FED64034C7009900006E0549F3B
:10067E004460F07B017A00790690000DE4F0A3044B
:08068E00F07D807F481201FDA0
:010696002241
:0307B300900004AF
:1007B600120A68900004E07002A3E090000660044C
:1007C60074C9800274E7F0E4A3F07B017A0079062D
:1007D60090000DE4F0A37402F0FD7F481201FD9035
:1007E6000004E07002A3E09000066004747D8002BD
:1007F6007455F0E4A3F07B017A00790690000DE4CD
:0C080600F0A37402F07D037F480201FDA6
:03086D00900004F4
:10087000120A687B017A00790690000CE4F0A30468
:10088000F07D807F48120003900004E07002A3E036
:100890009000066008E054FE4401F08004E054FE3D
:1008A000F07B017A00790690000DE4F0A304F07D5E
:0608B000807F480201FDFB
:0B069700900021EBF0A3EAF0A3E9F0D3
:1006A2007B017A00792490000CE4F0A37402F0E458
:1006B200FD7F48120003900024E0FF900021E0FB40
:1006C200A3E0FAA3E0F9E48FF01205DC900025E044
:1006D200FFA3E0FBA3E0FAA3E0F9E48FF01205DC4C
:1006E200900021E0FBA3E0FAA3E0F91205B1C4F8FF
:1006F200540FC868FDE5F0C454F048FC900026E0B1
:10070200FBA3E0FAA3E0F91205B1AEF07804CEA2A1
:10071200E713CE13D8F8FFEE4CF9EF4DFF9000210E
:0D072200E0FBA3E0FAA3E0C98FF00205DCC4
:0B011600900029EBF0A3EAF0A3E9F051
:10012100120A6D7B017A00792C90000CE4F0A30493
:10013100F07D807F4812000390002CE0FF5480F492
:100141007006EF5401F4600790002CE04481F07BCD
:10015100017A00792C90000DE4F0A304F07D807FFA
:10016100481201FD7D647C007F017E001208B67B90
:10017100017A00792D90000CE4F0A37402F0E4FD03
:100181007F4812000390002DE0FF900029E0FBA3BF
:10019100E0FAA3E0F9E48FF01205DC90002EE0FF15
:1001A100A3E4F0A3EFF0900029E0FBA3E0FAA3E0C1
:1001B100F91205B1C4F8540FC868FDE5F0C454F054
:1001C10048FC90002FE0FEA3E07804CEA2E713CE16
:1001D10013D8F8FFEE4CFEEF4DFFEE8FF01205DC69
:1001E10090002CE0547FF07B017A00792D90000D76
:0C01F100E4F0A304F07D807F480201FDD3
:10054C00BB010CE58229F582E5833AF583E0225064
:10055C0006E92582F8E622BBFE06E92582F8E222AE
:0D056C00E58229F582E5833AF583E49322C8
:10057900F8BB010DE58229F582E5833AF583E8F0B8
:10058900225006E92582C8F622BBFE05E92582C864
:02059900F2224C
:10059B00A3F8E0C5F025F0F0E58215827002158313
:0605AB00E0C838F0E82270
:1005B100BB010A89828A83E0F5F0A3E02250068715
:1005C100F009E71922BBFE07E3F5F009E3192289D7
:0B05D100828A83E493F5F0740193220A
:1005DC00BB010A89828A83F0E5F0A3F0225006F76A
:0F05EC0009A7F01922BBFE06F3E5F009F3192267
:00000001FF
